:100000000080001071010000E9010000F101000012
:10001000F90100000102000009020000B274FFEFC4
:1000200000000000000000000000000011020000BD
:100030001902000000000000210200002902000057
:10004000310200002D3F0000C93F000031020000D6
:1000500031020000310200003102000031020000D4
:1000600031020000310200003102000031020000C4
:1000700031020000310200003102000031020000B4
:1000800031020000310200003102000031020000A4
:100090003102000031020000310200003102000094
:1000A0003102000031020000310200003102000084
:1000B0003102000031020000310200006D31000009
:1000C000310200003102000031020000508F0000B8
:1000D0000000001038000000508F000000C0072012
:1000E00000000000380000102444000000C0072079
:1000F0000000000080B489B000AFF860B9607A6099
:10010000BB68FB61FB68BB6100237B610AE0FB69A4
:100110001A1DFA61BA69111DB96112681A607B690A
:1001200004337B617A697B689A42F0D32437BD46F9
:100130005DF8047B704700BF80B485B000AF786085
:1001400039607B68FB600023BB6007E0FB681A1D19
:10015000FA6000221A60BB680433BB60BA683B686F
:100160009A42F3D31437BD465DF8047B704700BF55
:1001700080B584B000AF194BFB6013E0FB681A1D1B
:10018000FA601B68BB60FB681A1DFA601B687B6025
:10019000FB681A1DFA601B683B60B86879683A68AA
:1001A000FFF7A8FFFB680E4A9342E7D30DE0FB6818
:1001B0001A1DFA601B687B60FB681A1DFA601B68D9
:1001C0003B6078683968FFF7B7FFFB68054A9342E0
:1001D000EDD305F0B3FD05F023FFFEE7CC000000F2
:1001E000E4000000F400000080B400AFFEE700BFB0
:1001F00080B400AFFEE700BF80B400AFFEE700BFF1
:1002000080B400AFFEE700BF80B400AFFEE700BFE0
:1002100080B400AFFEE700BF80B400AFFEE700BFD0
:1002200080B400AFFEE700BF80B400AFFEE700BFC0
:1002300080B400AFFEE700BF80B588B000AF786043
:10024000084611461A460346FB700B46BB70134620
:100250007B70294805F0C4FA0123BB7300233B746B
:100260000023FB730F237B7300233B7307F10C0305
:10027000184605F017F810237B7307F10C03184696
:1002800005F010F807F11803184605F0DFFA7B684F
:10029000BB61FB78012B02D10123BB7701E0002376
:1002A000BB77BB78012B02D102233B7707E0BB78F9
:1002B000022B02D101233B7701E000233B770F4A59
:1002C00097F82830137007F118030B48194605F00A
:1002D00067F907F11403184605F02AFC07F1140327
:1002E0000548194605F0D0FB0348012105F036FC0E
:1002F0002037BD4680BD00BF00000140D403001080
:1003000080B588B000AF7860084611461A460346AB
:10031000FB700B46BB7013467B70294805F060FAF2
:100320000123BB7300233B740023FB7302237B7305
:1003300000233B7307F10C03184604F0B3FF0323BB
:100340007B7307F10C03184604F0ACFF07F11803A8
:10035000184605F07BFA7B68BB61FB78012B02D164
:100360000123BB7701E00023BB77BB78012B02D1CF
:1003700002233B7707E0BB78022B02D101233B77B6
:1003800001E000233B770F4A97F82830137007F1FC
:1003900018030B48194605F003F907F11403184632
:1003A00005F0C6FB07F114030548194605F06CFB80
:1003B0000348012105F0D2FB2037BD4680BD00BFB8
:1003C00000C00040D403001090B585B002AF786043
:1003D000084611461A460346FB700B46BB7013468F
:1003E0007B70F978BA787C783B7E009378682346F6
:1003F000FFF786FFF978BA787C783B7E00937868BF
:100400002346FFF719FF03F061FA03461A46104B23
:1004100083F8292103F04EFA03461A460C4B83F861
:100420002A2103F0FFF903461A46094B83F82C21D1
:10043000074B002283F82B21064B074A1A60074B13
:1004400000221A80064B00221A700C37BD4690BD60
:10045000D403001004050010D50300103A0000106A
:100460003C00001080B500AF074B93F82C31042BF3
:1004700009D10320054900F00FF9054B054A1A6020
:10048000054B00221A7080BDD40300107089000053
:1004900004050010D50300103C00001080B584B0A6
:1004A00000AF78600B46FB70FB783448194602F0C9
:1004B000EBFDFB781B2B01D000235BE00023FB60EE
:1004C0007B6805331B78303B2D4A02FB03F3FB604E
:1004D0007B6806331B78303B2A4A02FB03F31A463B
:1004E000FB681344FB607B6807331B78303B264A6C
:1004F00002FB03F31A46FB681344FB607B68083376
:100500001B78303B42F2107202FB03F31A46FB6881
:100510001344FB607B6809331B78303B4FF47A72DD
:1005200002FB03F31A46FB681344FB607B680A3343
:100530001B78303B642202FB03F31A46FB6813442A
:10054000FB607B680B331B78A3F1300213469B00E2
:1005500013445B001A46FB681344FB607B680C3352
:100560001B781A46FB681344303BFB60F86803F0C5
:1005700053FC012318461037BD4680BD7489000026
:100580008096980040420F00A086010080B582B09E
:1005900000AF00237B60304B93F82B3103F0010355
:1005A000002B0AD0FFF75EFF2B4B93F82B3123F083
:1005B0000103DAB2284B83F82B21284B1A88284BE9
:1005C000A3FB0213D9080B469B000B445B00D31A14
:1005D0009BB2002B3DD1234B1A68234B1B789BB257
:1005E000C3F180039BB21046194600F041F87860D1
:1005F0007B68002B2DD07B68DAB21B4B1B78134431
:10060000DBB21A481946FFF749FF0346002B06D014
:10061000154B00221A70134B144A1A6019E07B68BC
:10062000DAB2114B1B781344DAB20F4B1A700D4B30
:100630001A687B6813440B4A13600B4B1B78DBB2C0
:100640005BB2002B05DA084B00221A70054B074AF3
:100650001A600837BD4680BDD40300103800001072
:10066000CDCCCCCC040500103C000010D50300100C
:1006700080B582B000AF78600B467B807B880548F0
:1006800079681A46002305F0A3F90346184608378F
:10069000BD4680BD0000014080B582B000AF03467A
:1006A0003960FB71FB79044839681A46012305F06B
:1006B0001BF90837BD4680BD0000014080B500AF82
:1006C000124B93F82A31002B19D1114B1B88B3F52B
:1006D0007A7F0ED90F4802F0D7FC0C4B93F82B31E0
:1006E00043F00103DAB2094B83F82B21084B0022B7
:1006F0001A80074B1B8801339AB2054B1A80064BB0
:100700001B8801339AB2044B1A8080BDD4030010B9
:100710003A000010808900003800001080B582B0D7
:1007200000AF78600448796802F064FD034618461B
:100730000837BD4680BD00BF0000001080B582B004
:1007400000AF78600448796802F088FD03461846D7
:100750000837BD4680BD00BF0000001080B500AF67
:10076000024802F0CDFD0346184680BD000000108F
:1007700080B500AF014802F0F7FD80BD0000001019
:1007800080B582B000AF78600448796802F032FD2D
:10079000034618460837BD4680BD00BF180000104C
:1007A00080B582B000AF78600448796802F088FDB7
:1007B000034618460837BD4680BD00BF180000102C
:1007C00080B500AF024802F09BFD0346184680BD8D
:1007D0001800001080B500AF024802F0A3FD0346E8
:1007E000184680BD1800001080B500AF014802F027
:1007F000BBFD80BD1800001080B400AF0B4B002281
:100800001A700B4B00221A800A4B00221A700A4BF6
:1008100000221A70094B1B7823F00103DAB2074B50
:100820001A70BD465DF8047B704700BF640100107C
:100830004A00001066010010490000104800001036
:1008400080B400AF034B00221A70BD465DF8047BF4
:10085000704700BF6501001080B500AFFFF7CCFF07
:10086000FFF7EEFFFFF7C0FFFFF782FF074B1B7894
:1008700043F00203DAB2054B1A70044B1B7823F0E5
:100880000403DAB2014B1A7080BD00BF48000010AB
:1008900090B5ADF5017D3EAF3B4B1B7803F00203F5
:1008A000002B20D0FFF78CFF0346002B1BD1374BCA
:1008B00000221A703B1D1846FFF772FF3C1D694667
:1008C00004F11003F2220846194605F0B3FB94E840
:1008D0000F0000F0A7F92C4B1B7823F00203DAB2CB
:1008E000294B1A704BE0284B1B7803F00403002BB4
:1008F00045D0274B1B78042B24D8244B00221A7098
:10090000214B1B7823F00403DAB21F4B1A702148E5
:1009100002F0BAFB3B1D1846FFF742FF3C1D69463B
:1009200004F11003F2220846194605F083FB94E80F
:100930000F0000F077F9164B1B780133DAB2144B35
:100940001A7015E0114B00221A70FFF743FF0E4B8F
:100950001B7823F00403DAB20B4B1A700A4B1B7896
:1009600043F00203DAB2084B1A70094B00221A70E6
:10097000054B1B7823F00403DAB2034B1A7007F51A
:100980008677BD4690BD00BF48000010650100108D
:100990004C0000108C89000080B5C4B000AF3B460D
:1009A0001A60FB1D02461A70BB1D0A461A7007F139
:1009B0000C03FA1D12785A7007F10C03FA1D127815
:1009C0001A7007F10C03BA1D12789A7007F10C0324
:1009D0001A78BB1D1B781344DAB207F10C031A70A6
:1009E000002387F80F311FE007F10C031A7897F8FE
:1009F0000F31394609680B441B781344DAB207F10A
:100A00000C031A7097F80F3197F80F2139460968CF
:100A10000A44117807F10C0213440A46DA7097F879
:100A20000F31013387F80F31BB1D97F80F211B7869
:100A30009A42D9D307F10C031846FFF7A1FE0346EB
:100A4000184607F58877BD4680BD00BF90B5C5B094
:100A500000AF0446084611463A461360FB1D224685
:100A60001A70BB1D02461A703B1D0A461A80BB1D38
:100A70001B780233FF2B01DD022370E007F10C032A
:100A8000FA1D12785A7007F10C03FA1D12781A70C9
:100A9000BB1D1B780233DAB207F10C039A7007F121
:100AA0000C031A7807F10C039B781344DAB207F1B0
:100AB0000C031A703B1D1B881B0A9BB2DAB207F1AC
:100AC0000C03DA7007F10C031A7807F10C03DB78DA
:100AD0001344DAB207F10C031A703B1D1B88DAB21B
:100AE00007F10C031A7107F10C031A7807F10C03D4
:100AF0001B791344DAB207F10C031A70002387F84C
:100B00000F3120E007F10C031A7897F80F313946BE
:100B100009680B441B781344DAB207F10C031A700E
:100B200097F80F31023397F80F21394609680A44C4
:100B3000117807F10C0213440A46DA7097F80F3166
:100B4000013387F80F31BB1D97F80F211B789A42AC
:100B5000D8D307F10C031846FFF712FE03461846D8
:100B600007F58A77BD4690BDB0B5ADF5007D3EAFC7
:100B7000274B1B78002B2ED0264B5B78FA2B13D1FA
:100B8000FFF728FE244B1B7843F00203DAB2224B16
:100B90001A70214B1B7823F00403DAB21E4B1A7033
:100BA0001E4B00221A7013E01A4B5B78FB2B07D107
:100BB000194B1B7843F00403DAB2174B1A7007E0A5
:100BC0001448FFF7ABFD0346002B01D100F070F88D
:100BD0000F4B00221A70FFF7C1FD0346002B13D103
:100BE0003B1D1846FFF7AAFD0D4B1D683C1D6946CD
:100BF00004F11003F2220846194605F01BFA94E8A6
:100C00000F00A847FFF7F8FD07F58477BD46B0BD94
:100C10004D00001050000010480000104C00001063
:100C20005401001084B080B582B000AF07F1100EFF
:100C30008EE80F001B4B00221A701B4B1B68FE2016
:100C40009847194B1B68FE209847174B1B683A7C46
:100C500010469847144B1B687A7C10469847124BF5
:100C60001B68BA7C104698470023FB710BE0FB79A8
:100C700007F110021344DB780C48194604F0FCFD20
:100C8000FB790133FB71BB7CFA799A42EFD3064BB7
:100C90001B68FD2098470837BD46BDE8804004B07A
:100CA000704700BF650100105C01001000C00940E2
:100CB00080B500AF0C4B1B68FE2098470A4B1B68A1
:100CC000FE209847084B1B68FA209847064B1B6884
:100CD000FA209847044B1B6800209847024B1B687A
:100CE000FD20984780BD00BF5C01001080B500AFBB
:100CF0000C4B1B68FE2098470A4B1B68FE20984748
:100D0000084B1B68FB209847064B1B68FB20984745
:100D1000044B1B6800209847024B1B68FD20984736
:100D200080BD00BF5C01001080B584B000AFF860EA
:100D3000B9607A60FFF760FDFFF782FD0E4A7B68BD
:100D400013600E4ABB6813600D4AFB681360FF20F6
:100D500005F072F902460B4B1A600A4B1B680A4AEF
:100D600013600A4B1B7843F00203DAB2074B1A7088
:100D70001037BD4680BD00BF580100105C01001057
:100D80005401001040000010440000104800001002
:100D900080B584B000AF664B1B68664A126866492E
:100DA00009880A44104698470346BB80BB88002B3D
:100DB00000F0BB80614B00221A705F4B1A88BB8821
:100DC00013449AB25C4B1A805B4B1B88052B40F294
:100DD000AC8000237B800123FB81A0E0554B1A6887
:100DE000FB8913441B78FE2B40F09680514B1A6808
:100DF000FB89013B13441B78FE2B40F08D80FB895F
:100E0000013B7B807B880433BB817FE04C4B1A68BD
:100E1000BB8913441B78FD2B75D1464B1A687B8820
:100E2000043313441B781946BA897B88D31A053BCF
:100E3000994268D10023FB7200233B817B880233F7
:100E4000FB804DE07B889A1CFB889A4207D1394B86
:100E50001A68FB8813441A783A4B1A703DE07B8875
:100E6000DA1CFB889A420FD1324B1A68FB88134474
:100E70001A78344B5A702F4B1A68FB8813441A782F
:100E8000FB7A1344FB7228E07B881A1DFB889A4288
:100E90000FD1284B1A68FB8813441A78294B9A7093
:100EA000244B1A68FB8813441A78FB7A1344FB72AC
:100EB00013E03B895A1C3A8119461E4B1A68FB887D
:100EC00013441A781F4B0B44DA701A4B1A68FB88CC
:100ED00013441A78FB7A1344FB72FB880133FB80BE
:100EE000FA88BB899A42ADD3164B1B78FA7A9A429C
:100EF00005D1154B01221A70FFF77EFC03E0FFF7C6
:100F00007BFCFFF7F3FEBB890133BB810A4B1B88D7
:100F1000BA899A42FFF47AAFFB890133FB81064B11
:100F20001B88FA899A42FFF459AF1037BD4680BD3D
:100F300058010010440000104A0000106401001025
:100F400040000010500000104D00001080B500AFB0
:100F50001C4B1B6801331B4A13601A4B19681A4B50
:100F6000A3FB0123DA0813469B0013445B00CA1A53
:100F7000002A0BD1154B1B780133DAB2134B1A70D0
:100F8000134B1B780133DAB2114B1A700F4B1B78DD
:100F9000322B01D9FFF730FC0D4B1B78322B0FD9C8
:100FA0000C4B1B7803F00203002B06D1094B1B7876
:100FB00043F00403DAB2074B1A70054B00221A7093
:100FC00080BD00BF60010010CDCCCCCC640100100E
:100FD000650100104800001084B02DE9F04182B096
:100FE00002AF07F1180484E80F007B7E022B15D1B5
:100FF00000F036F902200521664AFFF7CDFC66486D
:101000000021682202F088FB02F002FE1520002178
:101010000022FFF7C1FC02F0F5FEB5E07B7E032B5A
:1010200002D100F0FFF8AFE07B7E112B05D111203B
:101030000521584AFFF7B0FCA6E07B7E122B0AD1AF
:1010400055480021102202F067FB152000210022E4
:10105000FFF7A2FC98E07B7E132B14D1FB7E9BB2A2
:101060001B029AB23B7F9BB213449AB2BB7E023BF7
:10107000DBB207F11D01084611461A4602F064FB77
:1010800002F0C0FE80E07B7E402B19D102F0D6FB3F
:10109000804602F0DFFB03461E4602F0E7FB0346F4
:1010A0001D4602F0EFFB03461C4602F0F7FB034629
:1010B0000093404631462A462346FFF785F963E010
:1010C0007B7E142B04D102F065FB02F07DFB5BE01C
:1010D0007B7E052B05D1062000210022FFF75CFC5A
:1010E00052E07B7E062B02D100F0AEF84CE07B7E16
:1010F000172B10D102F0C2FC03461D4602F0CAFCB9
:1011000003461C4602F0D2FC0346284621461A46F6
:1011100000F094FB38E07B7E182B07D1FB7E022B7E
:1011200032D13B7F184603F027FB2DE07B7E192B45
:101130002AD1FB7E012B0BD1397FBB7E023BDAB279
:1011400007F11D03084611461A4602F0D1FD1BE0C7
:10115000FB7E022B13D13B7F184602F0F1FD0346C4
:10116000184606F0E5FB0346DCB23B7F184602F06A
:10117000E7FD03462046194603F026FC04E0FB7E0B
:10118000032B01D103F014FCBD46BDE8F04104B0CF
:10119000704700BF94890000D401001080B582B070
:1011A00000AF0346FB71FB790348194604F064FB6A
:1011B0000837BD4680BD00BF00C0094080B582B081
:1011C00000AF7860054879687F22002304F000FCB6
:1011D000034618460837BD4680BD00BF00C0094021
:1011E00080B400AF034B1B781846BD465DF8047B06
:1011F000704700BF6701001080B500AF084B1B7837
:10120000002B0CD0FFF7ECFF0346002B04D0052089
:1012100000210022FFF7C0FB014B00221A7080BDA5
:101220006C01001080B500AF054801F02DFF00F003
:10123000B5F9044B00221A70FFF70EFB80BD00BF0A
:101240009C8900006701001080B400AF034B0022AE
:101250001A80BD465DF8047B704700BF680100102E
:1012600080B500AF074801F00FFF00F089F9064B89
:1012700001221A70054B00221A80054B00221A80A9
:1012800080BD00BFAC89000067010010680100103C
:101290006A01001080B500AFFFF7A2FF0346002BE4
:1012A0001ED0104B1B8841F28832934201D9FFF7C0
:1012B000B9FF0D4B1B88B3F57A7F05D30B4B012289
:1012C0001A70094B00221A80064B1B8801339AB210
:1012D000044B1A80044B1B8801339AB2024B1A80CC
:1012E00080BD00BF680100106A0100106C01001091
:1012F00080B58CB000AF20237B60094BBB6001231D
:10130000FB6000237B610023BB6103233B623B1D29
:1013100004481946002203F03DFD3037BD4680BD2C
:101320003000001000C0014080B58CB000AF212318
:101330007B60094BBB600123FB6000237B610023C2
:10134000BB6103233B623B1D04481946002203F0A6
:1013500021FD3037BD4680BD3100001000C0014086
:1013600080B58CB000AF22237B60094BBB600123AA
:10137000FB6000237B610023BB6103233B623B1DB9
:1013800004481946002203F005FD3037BD4680BDF4
:101390003200001000C0014080B58CB000AF2323A4
:1013A0007B60094BBB600123FB6000237B61002352
:1013B000BB6103233B623B1D04481946002203F036
:1013C000E9FC3037BD4680BD3300001000C001404D
:1013D00080B400AF034B4FF000729A61BD465DF8D8
:1013E000047B704760C0092080B400AF034B4FF00E
:1013F0000072DA61BD465DF8047B704760C0092069
:1014000080B400AF034B4FF400229A61BD465DF8F3
:10141000047B704700C0092080B400AF034B4FF439
:101420000022DA61BD465DF8047B704700C00920E8
:1014300080B400AF034B4FF480129A61BD465DF853
:10144000047B704700C0092080B400AF034B4FF409
:101450008012DA61BD465DF8047B704700C0092048
:1014600080B400AF034B4FF480029A61BD465DF833
:10147000047B704700C0092080B400AF034B4FF4D9
:101480008002DA61BD465DF8047B704700C0092028
:1014900080B400AFBD465DF8047B704780B400AFF8
:1014A000BD465DF8047B704780B400AF034B10224B
:1014B0009A61BD465DF8047B704700BF20C00920DB
:1014C00080B400AF034B1022DA61BD465DF8047BA7
:1014D000704700BF20C0092080B500AF044B1B78C7
:1014E00023F00103DAB2024B1A70FFF739FF80BD17
:1014F0003200001080B500AF044B1B7823F01003BE
:10150000DAB2024B1A70FFF72BFF80BD32000010D9
:1015100080B500AF044B1B7843F02003DAB2024BD6
:101520001A70FFF71DFF80BD3200001080B500AFBC
:10153000044B1B7823F02003DAB2024B1A70FFF73A
:10154000D7FE80BD3000001080B500AF044B1B7883
:1015500043F02003DAB2024B1A70FFF7C9FE80BDD8
:101560003000001080B500AF044B1B7823F002035D
:10157000DAB2024B1A70FFF7BBFE80BD30000010DC
:1015800080B500AF044B1B7823F00803DAB2024B9E
:101590001A70FFF701FF80BD3300001080B500AF67
:1015A000044B1B7843F00803DAB2024B1A70FFF7C2
:1015B000F3FE80BD3300001080B58EB000AF03464F
:1015C000FB710B46BB7113467B711123BB6007F1A6
:1015D0003403FB6002233B610023BB610023FB61FA
:1015E00003237B621E2387F834308A2387F8353043
:1015F00007F1080390481946002203F0CBFB0023B3
:1016000087F83430A02387F8353007F108038A487B
:101610001946002203F0BEFB012387F83430A023D3
:1016200087F8353007F1080383481946002203F094
:10163000B1FB022387F83430A02387F8353007F157
:1016400008037D481946002203F0A4FB032387F812
:1016500034303F2387F8353007F1080376481946C0
:10166000002203F097FB042387F83430002387F827
:10167000353007F1080370481946002203F08AFB51
:10168000052387F83430FB7987F8353007F10803F4
:1016900069481946002203F07DFB062387F83430A1
:1016A000BB7987F8353007F10803634819460022F3
:1016B00003F070FB072387F834307B7987F83530E7
:1016C00007F108035C481946002203F063FB492335
:1016D00087F83430002387F8353007F1080356487F
:1016E0001946002203F056FB4A2387F834301C23A6
:1016F00087F8353007F108034F481946002203F0F8
:1017000049FB4B2387F834301F2387F8353007F126
:10171000080349481946002203F03CFBA02387F840
:101720003430362387F8353007F10803424819462C
:10173000002203F02FFBA22387F83430482387F8D8
:10174000353007F108033C481946002203F022FB1C
:10175000A22387F83430482387F8353007F108038F
:1017600035481946002203F015FBA42387F83430CE
:10177000482387F8353007F108032F48194600221F
:1017800003F008FBC02387F83430402387F8353056
:1017900007F1080328481946002203F0FBFAD42376
:1017A00087F83430042387F8353007F108032248DE
:1017B0001946002203F0EEFAD62387F834300423CA
:1017C00087F8353007F108031B481946002203F05B
:1017D000E1FAD82387F83430042387F8353007F14D
:1017E000080315481946002203F0D4FADA2387F8D3
:1017F0003430042387F8353007F108030E481946C2
:10180000002203F0C7FA1F2387F83430102387F82B
:10181000353007F1080308481946002203F0BAFAE8
:10182000F979BA797B79084611461A4600F006F82C
:101830003837BD4680BD00BF00C0014080B58EB0C6
:1018400000AF0346FB710B46BB7113467B7111233E
:10185000BB6007F13403FB6002233B610023BB61E3
:101860000023FB6103237B62052387F83430FB7977
:1018700087F8353007F1080310481946002203F0B5
:1018800089FA062387F83430BB7987F8353007F1B9
:1018900008030A481946002203F07CFA072387F858
:1018A00034307B7987F8353007F10803034819464F
:1018B000002203F06FFA3837BD4680BD00C00140FA
:1018C00080B5A0B000AF03463A60FB800B467B7149
:1018D0007B7987F87F307B79402B02D9402387F8CA
:1018E0007F3050233B650123FB66FB881B0A9BB2BC
:1018F000DBB23B73FB88DBB27B73002387F87E305F
:1019000011E097F87E30023397F87E2039680A4458
:10191000127807F180010B4403F8742C97F87E309D
:10192000013387F87E3097F87E2097F87F309A420F
:10193000E7D307F10C037B6597F87F300233BB6573
:1019400000233B6600237B6607F1500304481946D9
:10195000002203F01FFA034618468037BD4680BDBB
:1019600000C0014080B58EB000AF03463A60FB80F6
:101970000B467B717B7987F837307B79402B02D916
:10198000402387F83730FB881B0A9BB2DBB287F80D
:101990003430FB88DBB287F835305023BB6001233D
:1019A0007B6207F13403FB6002233B613B68BB6150
:1019B00097F83730FB6107F1080305481946002204
:1019C00003F0E8F9034618463837BD4680BD00BF2E
:1019D00000C0014080B584B000AF03463A60FB8090
:1019E0000B46BB8000237B730023FB81FA88BB88F6
:1019F0002B4811461A4601F047FB2A4B1B78002B57
:101A000008D1BA88284B1A80284A3B681360284AB4
:101A1000FB881380234B01221A70234B1B88FB8108
:101A2000214B1B881BB2402B01DD4023FB81204B47
:101A30001988FB89DAB21D4B1B68084611461A4605
:101A4000FFF73EFF03467B73184B1A68FB8913446C
:101A5000164A1360164B1A88FB8913449AB2144B2A
:101A60001A80114B1B889AB2FB89D31A9BB29AB287
:101A70000D4B1A800C4B1B881BB2002B05DC094B4D
:101A800000221A7001F0F8F805E00A480A2109223C
:101A9000002301F005F97B7B18461037BD4680BD59
:101AA000B88900006D0100106E0100107001001077
:101AB00074010010692C000080B584B000AF0346AB
:101AC0003A60FB800B46BB800023FB730023BB8185
:101AD000264B1B78002B3FD1BA88254B1A80254A0C
:101AE0003B681360244AFB8813802FE0204B1B883F
:101AF000BB811F4B1B881BB2402B01DD4023BB81E8
:101B00001D4B1988BB89DAB21A4B1B68084611466F
:101B10001A46FFF727FF0346FB73164B1A68BB896B
:101B20001344144A1360144B1A88BB8913449AB2A5
:101B3000114B1A800E4B1B889AB2BB89D31A9BB2E9
:101B40009AB20B4B1A80642001F07AF8084B1B887C
:101B50001BB2002BCADC04E0084801F095FA002310
:101B6000FB73FB7B18461037BD4680BD6D0100102E
:101B70006E0100107001001074010010E089000077
:101B800080B400AF034B1B781846BD465DF8047B5C
:101B9000704700BF6D01001080B500AF3B4801F0F9
:101BA00073FA02F023F90346002B21D101F01EFF46
:101BB0000346002B04D001F019FF0346022B01D18C
:101BC000FFF71EFC01F012FF0346012B04D001F0C9
:101BD0000DFF0346022B01D1FFF72AFC01F006FF9F
:101BE0000346032B51D1FFF717FCFFF72DFC4CE008
:101BF00002F0FCF80346012B21D101F003FF03465C
:101C0000002B04D001F0FEFE0346022B01D1FFF7AA
:101C1000F7FB01F0F7FE0346012B04D001F0F2FEC2
:101C20000346022B01D1FFF703FC01F0EBFE034654
:101C3000032B2AD1FFF7F0FBFFF706FC25E002F0AB
:101C4000D5F80346022B20D101F0C4FE0346002B39
:101C500004D001F0BFFE0346022B01D1FFF7D0FBF9
:101C600001F0B8FE0346012B04D001F0B3FE034699
:101C7000022B01D1FFF7DCFB01F0ACFE0346032B86
:101C800003D1FFF7C9FBFFF7DFFB80BDF48900003C
:101C900080B500AF3B4801F0F7F902F0A7F8034622
:101CA000002B21D101F0A2FE0346002B04D001F04D
:101CB0009DFE0346022B01D1FFF7AEFB01F096FE1D
:101CC0000346012B04D001F091FE0346022B01D103
:101CD000FFF7BAFB01F08AFE0346032B51D1FFF751
:101CE0009BFBFFF7B1FB4CE002F080F80346012BB1
:101CF00021D101F087FE0346002B04D001F082FEC3
:101D00000346022B01D1FFF787FB01F07BFE034660
:101D1000012B04D001F076FE0346022B01D1FFF720
:101D200093FB01F06FFE0346032B2AD1FFF774FBF0
:101D3000FFF78AFB25E002F059F80346022B20D179
:101D400001F048FE0346002B04D001F043FE034699
:101D5000022B01D1FFF760FB01F03CFE0346012B93
:101D600004D001F037FE0346022B01D1FFF76CFBD4
:101D700001F030FE0346032B03D1FFF74DFBFFF7C5
:101D800063FB80BD188A000080B500AF054801F0F4
:101D90007BF901F043FE0346002B01D0FFF718FB4F
:101DA00080BD00BF3C8A000080B500AF024801F052
:101DB0006BF9FFF719FB80BD5C8A000080B500AFAE
:101DC00001F038FE0346002B0DD0084801F05CF905
:101DD00001F03CFE0346002B02D0FFF75FFB04E05E
:101DE000FFF756FB01E0FFF759FB80BD808A00003A
:101DF00080B500AF01F01EFE0346002B0DD0084851
:101E000001F042F901F022FE0346002B02D0FFF759
:101E10003FFB04E0FFF742FB01E0FFF73FFB80BD23
:101E2000A48A000080B500AF024801F02DF9FFF749
:101E30003BFB80BDCC8A000080B500AF024801F0BA
:101E400023F9FFF73DFB80BDEC8A000080B582B02E
:101E500000AF03460A46FB711346BB71FB79002BAA
:101E600008D1BB79002B05D00B4801F00DF901F02A
:101E700081FB0EE0FB79002B08D0BB79002B05D14C
:101E8000064801F001F901F0BDFB02E0044801F051
:101E9000FBF80837BD4680BD108B0000388B000072
:101EA000608B000080B500AF01F0DCFD034603F05D
:101EB0000103002B1BD0514B5B69DB0FDAB2504B97
:101EC0001A724F4B1B7ADBB2002B08D04C4B9B791C
:101ED000DBB243F00103DAB2494B9A7107E0484B99
:101EE0009B79DBB223F00103DAB2454B9A7101F022
:101EF000B9FD034603F00203002B1DD03F4B5B6985
:101F000003F400335B0CDAB23D4B1A723C4B1B7A84
:101F1000DBB2002B08D03A4B9B79DBB223F00203F3
:101F2000DAB2374B9A7107E0354B9B79DBB243F05D
:101F30000203DAB2324B9A7101F094FD034603F0CA
:101F40000403002B1DD02D4B5B6903F480331B0C65
:101F5000DAB22B4B1A722A4B1B7ADBB2002B08D059
:101F6000274B9B79DBB223F00403DAB2244B9A713E
:101F700007E0234B9B79DBB243F00403DAB2204B3A
:101F80009A7101F06FFD034603F00803002B1DD08A
:101F90001C4B5B6903F40063DB0ADAB2184B1A725C
:101FA000174B1B7ADBB2002B08D0154B9B79DBB2A9
:101FB00023F00803DAB2124B9A7107E0104B9B79B9
:101FC000DBB243F00803DAB20D4B9A710C4B9B79EC
:101FD000DAB20B4BDB79DBB29A420ED0084B9B791D
:101FE000DBB2002B02D0FFF73BFA01E0FFF744FA27
:101FF000034B9B79DAB2024BDA7180BD20C0092015
:102000007042001040C0092080B500AFA04B9B7A01
:10201000DBB203F00103002B00F06F8101F062FCE2
:10202000034603F00103002B1BD09A4B5B6903F0BE
:1020300080639B0E964A1360954B1B68002B08D05B
:10204000934B1B79DBB223F00103DAB2904B1A7188
:1020500007E08F4B1B79DBB243F00103DAB28C4B04
:102060001A7101F03FFC034603F02003002B1BD044
:10207000894B5B6903F40023DB0C854A1360844BB6
:102080001B68002B08D0824B1B79DBB243F0200386
:10209000DAB27F4B1A7107E07D4B1B79DBB223F07C
:1020A0002003DAB27A4B1A7101F01CFC034603F0EC
:1020B0000803002B38D0794B5B6903F400535B0BAA
:1020C000734A136001F01AFC034603F00803002B67
:1020D00015D06F4B1B68002B08D06D4B1B79DBB202
:1020E00043F00803DAB26A4B1A711DE0684B1B79A2
:1020F000DBB223F00803DAB2654B1A7114E0644BCB
:102100001B68002B08D0624B1B79DBB223F008035D
:10211000DAB25F4B1A7107E05D4B1B79DBB243F01B
:102120000803DAB25A4B1A7101F0DCFB034603F0E4
:102130000203002B38D0584B5B6903F480331B0C2F
:10214000534A136001F0DAFB034603F00203002B4D
:1021500015D04F4B1B68002B08D04D4B1B79DBB2C1
:1021600043F00203DAB24A4B1A711DE0484B1B7967
:10217000DBB223F00203DAB2454B1A7114E0444B90
:102180001B68002B08D0424B1B79DBB223F0020303
:10219000DAB23F4B1A7107E03D4B1B79DBB243F0DB
:1021A0000203DAB23A4B1A7101F09CFB034603F0CA
:1021B0000403002B38D0384B5B6903F400335B0C0D
:1021C000334A136001F09AFB034603F00403002B2B
:1021D00015D02F4B1B68002B08D02D4B1B79DBB281
:1021E00043F00403DAB22A4B1A711DE0284B1B7925
:1021F000DBB223F00403DAB2254B1A7114E0244B4E
:102200001B68002B08D0224B1B79DBB223F00403A0
:10221000DAB21F4B1A7107E01D4B1B79DBB243F09A
:102220000403DAB21A4B1A7101F05CFB034603F0A7
:102230001003002B3CD0164B00221A6001F05EFB0D
:10224000034603F01003002B15D0114B1B68002B25
:1022500008D00F4B1B79DBB243F01003DAB20C4B02
:102260001A7125E00A4B1B79DBB223F01003DAB2B6
:10227000074B1A711CE0064B1B68002B10D0044B57
:102280001B79DBB223F01003DAB2014B1A710FE0B5
:102290007042001060C0092020C0092040C0092001
:1022A000224B1B79DBB243F01003DAB21F4B1A71D9
:1022B0001E4B1B79DAB21D4B5B79DBB29A4214D00C
:1022C0001A4B5B79DAB2194B1B79DBB2104619460F
:1022D000FFF7BCFD154B1B79DBB2184601F0AEFDD4
:1022E000124B1B79DAB2114B5A71104B9B7ADBB24D
:1022F00023F00103DAB20D4B9A720C4B9B79DAB2E0
:102300000A4B5B7ADBB29A420ED0084B9B79DBB268
:10231000002B02D0FFF70AF901E0FFF715F9034B94
:102320009B79DAB2014B5A7280BD00BF7042001037
:1023300080B400AF054B1B889BB201339AB2034BAC
:102340001A80BD465DF8047B704700BF780100101D
:1023500080B500AF174B1B889AB2174BA3FB021333
:10236000D9080B469B000B445B00D31A9BB2002B91
:1023700007D1124B9B7ADBB243F00103DAB20F4B69
:102380009A720C4B1B889AB20B4BA3FB0213D90811
:102390000B469B000B445B00D31A9BB2002B01D170
:1023A000FFF780FD034B1B889BB201339AB2014BB0
:1023B0001A8080BD76010010CDCCCCCC70420010CC
:1023C00080B483B000AF0023FB7119E0FB79104AA1
:1023D000002142F83310FB790D4ADB001344002240
:1023E0009A80FB790A4ADB00134400229A71FB7938
:1023F000074ADB0013440022DA71FB790133FB71D9
:10240000FB791D2BE2D90C37BD465DF8047B704784
:1024100080410010F0B587B000AF3E4686E803006B
:102420000021F97580E0F97D444850F83110002909
:102430000AD1FB7D414ADB0013443A4692E803008F
:1024400083E80300FB7D74E0F97D3C48C90001444A
:102450008888B988884264D969468E46F97DC1F179
:102460001E06711E3961314608464FF000018B018E
:1024700043EA9063820133461A464FF000039D0100
:1024800045EA926594013346DB0003330733DB08EA
:10249000DB00ADEB030D6B4603339B089B00FB6039
:1024A0000023BB7510E0BB7DB97DFA7D0A44F96855
:1024B0002248DB000B44D200024492E8030083E888
:1024C0000300BB7D0133BB75BA7DFB7DC3F11E03E9
:1024D0009A42E8DBFB7D194ADB0013443A4692E856
:1024E000030083E8030000237B7511E0FA7D7B7D08
:1024F000134401337A7D1148F968DB000344D200AC
:102500000A4492E8030083E803007B7D01337B7576
:102510007A7DFB7DC3F11D039A42E7DBFB7DF54627
:1025200007E0F97D0131F975F97D1D297FF67BAF53
:10253000FF2318461C37BD46F0BD00BF8041001088
:1025400080B485B000AF78600023FB7317E0FB7B9D
:102550000F4A52F83330002B0ED0FA7BFB7B0C492C
:10256000DB000B4499887B689BB2CB1A98B2084970
:10257000D3000B4402469A80FB7B0133FB73FB7B49
:102580001D2BE4D91437BD465DF8047B704700BFAE
:102590008041001080B483B000AF78607B68054A4A
:1025A00092E8030083E8030078680C37BD465DF8C5
:1025B000047B70478041001080B400AF054B1B685E
:1025C000002B01D0012300E000231846BD465DF832
:1025D000047B70478041001080B483B000AF114B82
:1025E0001B68002B19D00123FB710FE0FB79013B25
:1025F000FA790C480B49DB000344D2000A4492E804
:10260000030083E80300FB790133FB71FB791D2B89
:10261000ECD9044B0022C3F8E8200C37BD465DF826
:10262000047B70478041001080B4C1B000AF034606
:10263000FB71002387F8FF30002387F8FE3000236A
:1026400087F8FD3027E097F8FD303A4ADB00134465
:102650009B79FA799A4214D097F8FE305A1C87F881
:10266000FE2097F8FD10DB0007F580721344314817
:10267000A3F1F402CB00034493E8030082E80300D3
:1026800004E097F8FF30013387F8FF3097F8FD300A
:10269000013387F8FD3097F8FD301D2BD3D9002387
:1026A00087F8FC3038E097F8FC2097F8FF30C3F14A
:1026B0001E039A4210DA97F8FC3097F8FC201D4967
:1026C000D20007F580700244DB000B44F43A92E834
:1026D000030083E803001AE097F8FC30154A002154
:1026E00042F8331097F8FC30124ADB001344002202
:1026F0009A7197F8FC300F4ADB00134400229A804D
:1027000097F8FC300B4ADB0013440022DA7197F88B
:10271000FC30013387F8FC3097F8FC301D2BC2D910
:1027200097F8FF30184607F58277BD465DF8047BC1
:10273000704700BF8041001080B485B000AF0346F1
:10274000FB710023FB730CE0FB7B0B4ADB001344A3
:102750009B79FA799A4201D1012306E0FB7B013390
:10276000FB73FB7B1D2BEFD9002318461437BD46A6
:102770005DF8047B704700BF8041001080B588B0D1
:1027800000AF786002F072FC02F09CFC0123BB7386
:1027900000233B740023FB730A237B7300233B73EA
:1027A00007F10C03184602F07DFD0B237B7307F144
:1027B0000C03184602F076FD07F11803184603F0E3
:1027C00045F87B68BB6107F118030B48194602F016
:1027D000E7FE07F11403184603F0AAF907F1140302
:1027E0000548194603F050F90348012103F0B6F9F2
:1027F0002037BD4680BD00BF0080094080B586B04F
:1028000000AF02F033FC02F05DFC0223BB71002339
:102810003B720023FB7100237B7100233B713B1D46
:10282000184602F03FFD01237B713B1D184602F064
:1028300039FD07F11003184603F008F84FF461431F
:102840003B6107F110030B48194602F0A9FE07F19E
:102850000C03184603F06CF907F10C030548194600
:1028600003F012F90348012103F078F91837BD4647
:1028700080BD00BF00C0094080B400AF474B484A4C
:102880001A60484B484A1A60484B40F2FF221A60CF
:10289000474B4FF000721A60464B4FF040521A609F
:1028A000454A454B5B6823F070735360424A424B84
:1028B0005B6843F0A07353603F4A3F4B1B6823F0B3
:1028C000404313603C4A3C4B1B6843F08043136019
:1028D000394A394B5B6823F003035360364A364B61
:1028E0005B6843F001035360334A334B1B6823F0AA
:1028F000F0031360304A304B1B6843F05003136001
:102900002E4A2E4BD3F8C43043F08073C2F8C43043
:10291000294A294B1B6823F470031360264A264B6F
:102920001B6843F4A0031360244A244BD3F8C4303B
:1029300043F00073C2F8C4301F4A1F4B1B6823F0DA
:102940000F0313601C4A1C4B1B6843F00A031360FF
:10295000194A194BDB6843F48243D360164A164B7D
:10296000DB6823F40053D360134A134BDB6823F472
:102970008053D360104A104B1B6943F480231361CA
:102980000C4A0C4B9B6943F040539361074B4FF447
:102990000072DA61BD465DF8047B704700C0092013
:1029A000F5867A1820C009200200000440C00920E2
:1029B00060C0092080C0092000C0024000C00F4054
:1029C00080B400AF0A4A0A4B1B6843F4607313607B
:1029D000074A074BDB6943F46073D361054A054B33
:1029E0001B6843F0FF031360BD465DF8047B70472E
:1029F00000C0092040C0092080B500AF054B4FF44E
:102A000000729A61012000F01BF9024B4FF4007232
:102A1000DA6180BD00C0092080B582B000AF0346F6
:102A2000FB71094B8022DA61074B4FF400729A6107
:102A3000064BFF22DA61054AFB799361FFF7DCFF61
:102A40000837BD4680BD00BF00C0092040C0092036
:102A500080B582B000AF0346FB710A4B4FF40072A1
:102A60009A61084B80229A61074BFF22DA61064A7D
:102A7000FB799361FFF7C0FF00F066F80837BD46A9
:102A800080BD00BF00C0092040C0092080B584B0CF
:102A900000AF786039600023FB607B68012B06D9AA
:102AA0003B680F2B03D94FF0FF33FB6018E07B68C6
:102AB000002B09D13B68DBB2803BDBB21846FFF745
:102AC000ABFF00F041F80BE07B68012B08D13B68BD
:102AD000DBB2403BDBB21846FFF79EFF00F034F854
:102AE000FB68DBB218461037BD4680BD80B582B0AA
:102AF00000AF0346FB71FB791846FFF7A9FF0837C3
:102B0000BD4680BD80B584B000AF03463960FB711F
:102B10001023FB73FB7918460021FFF7B7FF07E08E
:102B20003B681B781846FFF7E1FF3B6801333B60C9
:102B30003B681B78002B04D0FB7B5A1EFA73002BDA
:102B4000EED11037BD4680BD80B500AF104A104BA6
:102B50001B6823F0FF0313600E4B8022DA610D4BDC
:102B60004FF440729A6100BF0A4B5B6903F0800327
:102B7000002BF9D1074B4FF44072DA61044A044B41
:102B80001B6843F0FF031360012000F045F880BD8F
:102B900040C0092000C0092080B500AF0120FFF728
:102BA0003BFF0A2000F038F880BD00BF80B500AFC1
:102BB000C82000F031F8FFF703FF164B4FF4007206
:102BC000DA610A2000F03CF83820FFF725FF0A20E0
:102BD00000F022F83820FFF71FFF0A2000F01CF851
:102BE0003820FFF719FFFFF7AFFF3820FFF714FF7A
:102BF000FFF7AAFF1020FFF70FFFFFF7A5FF062042
:102C0000FFF70AFFFFF7A0FF0C20FFF705FFFFF714
:102C10009BFF80BD00C0092080B483B000AF786006
:102C2000064B00221A6000BF044B1A687B689A4268
:102C3000FAD30C37BD465DF8047B70478401001061
:102C400080B483B000AF7860064B00221A6000BFEA
:102C5000044B1A687B689A42FAD30C37BD465DF87C
:102C6000047B70478801001080B500AF0020002170
:102C70000022FEF7AFFE80BD80B500AF074800F030
:102C800003FA0920FFF758FD0346002B04D1142056
:102C900000210022FDF780FE80BD00BF888B000070
:102CA00080B584B000AF7860084611461A460346E6
:102CB0007B800B467B7013463B70FFF77DFC034621
:102CC000002B02D10B4B00221A807B68BB60094BA2
:102CD0001A887B8813449BB2BB817B78BB733B789B
:102CE000FB7307F1080393E80300FFF793FB10372A
:102CF000BD4680BD8C01001080B582B000AFFFF7EB
:102D00005BFC0346002B07D03B461846FFF742FC0E
:102D1000FFF762FC3B6898470837BD4680BD00BF9F
:102D20002DE9F04182B002AF00F068FD00F086FDB1
:102D3000804600F08FFD03461E4600F097FD0346D7
:102D40001D4600F09FFD03461C4600F0A7FD03460C
:102D50000093404631462A462346FDF735FBBD46E3
:102D6000BDE8F081B0B586B000AF02F035FFFFF7E7
:102D700083FD6548654901F075FF6348012101F055
:102D8000B1FFFFF73BFD4FF4E130FFF7F7FC002008
:102D9000002101F08FF90120002101F08BF95C483E
:102DA0005C495D4AFDF7C0FFFEF7DCFBFEF794FBD4
:102DB000FEF71AFBFEF79EFBFEF7AAFBFEF798FA5A
:102DC000FEF7B2FAFEF7CCFAFEF7E6FA002001F0C1
:102DD00043F9012001F040F96420FFF71DFF00F0E6
:102DE0008FF9FFF7E3FEFFF7EBFAFFF799FF00F02B
:102DF00045FE03461D4600F04DFE03461C4600F00E
:102E000055FE0346284621461A46FEF7D5FB00F03C
:102E10001DFB424B00221A70002000F0BFFF002073
:102E200000F0D0FF4FF4FA70FFF7F6FE00203C49A7
:102E3000FFF768FE01203B49FFF764FE40F2DC50DB
:102E4000FFF7EAFE01F08EFAFFF7A6FE00203649F2
:102E5000FFF758FE01203549FFF754FE01F02AFA2A
:102E600040F2DC50FFF7D8FEFFF796FE01F022F8A3
:102E700003461A463B1D18462D4903F0A3F93B1D96
:102E800000201946FFF73EFE01202A49FFF73AFECF
:102E9000294800F0F9F800F091F90346FB82B7F9F0
:102EA0001630002B08D0B7F91630002B02DD01F0E8
:102EB0004FFD01E001F01CFDFDF76AFFFDF754FE38
:102EC000FDF7E6FCFFF7A0F8FDF760FBFEF794F9CD
:102ED00001F032FB194B1B78DBB2002B02D0174BF1
:102EE00000221A700D4B1B78DBB203F00103002B9C
:102EF00009D0FFF701FF094B1B78DBB223F0010378
:102F0000DAB2064B1A70C6E700C00140801A06000C
:102F1000D90F00009D110000BD1100007C4200107F
:102F20009C8B0000B08B0000C48B0000D88B00008D
:102F3000EC8B0000008C00000C8C00008E01001057
:102F400080B586B000AFFEF701F8FFF735FB03460A
:102F5000002B23D03B461846FFF71CFBBA88394BA1
:102F60001B889A421AD807F108031846FFF712FB8C
:102F7000FB7B002B08D1344B1B78DBB243F0010301
:102F8000DAB2314B1A7009E007F110031846FFF767
:102F900001FBFB7D012B01D1FFF7AEFE294B1B8806
:102FA00047F6FE72934206D947F6FF70FFF7C8FA5C
:102FB000244B00221A80254B1A68254BA3FB0213D1
:102FC0005B094FF4FA7101FB03F3D31A002B0ED106
:102FD000204B5B6903F08053002B04D01D4B4FF056
:102FE0008052DA6103E01B4B4FF080529A61174B1D
:102FF0001A68174BA3FB02139B094FF47A7101FB6C
:1030000003F3D31A002B02D1134B01221A70FEF7DF
:1030100041F9FDF753FB01F0F3FCFFF789F9094B88
:103020001B8801339AB2074B1A800C4B1B68013383
:103030000A4A1360054B1B680133044A13601837B2
:10304000BD4680BD8C0100107C4200107C01001048
:10305000D34D621080C009208E0100108401001041
:1030600080B500AFFFF774F9054B1B680133044AC4
:103070001360044B1B680133024A136080BD00BF1C
:1030800080010010880100100FB480B590B000AF2F
:1030900007F14C037B6007F1080318463221BA6C34
:1030A0007B6803F045FDF863FB6B002B08DDFB6BD1
:1030B00007F10802054811461A46012302F014FCE4
:1030C0004037BD46BDE8804004B0704700800940ED
:1030D00080B483B000AF0346FB71084997F907300D
:1030E0005B09FA7902F01F02012000FA02F241F8AE
:1030F00023200C37BD465DF8047B704700E100E0FB
:1031000080B500AF174A174BD3F8C43043F480237F
:10311000C2F8C430134A134BD3F8AC3143F0010367
:10312000C2F8AC31104B00229A600F4B02221A6099
:103130000D4B00225A620C4B4FF0FF32C3F8E82FC0
:10314000094B4FF0FF32C3F8D82F074B2022C3F8AA
:10315000DC2F054B47F23052DA631F20FFF7B8FF30
:1031600080BD00BF00C00F4000C00B4080B400AF66
:10317000104B5B6803F00103002B09D00E4B1B883A
:103180009BB29BB2013B9BB29AB20B4B1A8008E0F8
:10319000094B1B889BB29BB201339BB29AB2064B80
:1031A0001A80044B4FF0FF32C3F8E82FBD465DF89C
:1031B000047B704700C00B409001001080B483B0C6
:1031C00000AF0A4B1B889AB2094B1B889BB2D31ADB
:1031D0009BB2FB80054B1A88054B1A80FB881BB2FB
:1031E00018460C37BD465DF8047B7047900100100F
:1031F0009201001080B582B000AF786039607B68C2
:103200009A687B681B699A4201D3012321E07B689D
:103210005B6801337A681269B3FBF2F102FB01F2D9
:103220009A1A7B685A607B685A697B68DB687968A0
:10323000496801FB03F31A447B68DB681046396870
:103240001A4602F0F7FE7B689B685A1C7B689A60FE
:10325000002318460837BD4680BD00BF80B582B048
:1032600000AF786039607B689B68002B01D1012337
:1032700021E07B685A697B681B687968C96801FB33
:1032800003F31A447B68DB68386811461A4602F07B
:10329000D1FE7B681B6801337A681269B3FBF2F1D7
:1032A00002FB01F29A1A7B681A607B689B685A1EBF
:1032B0007B689A60002318460837BD4680BD00BF72
:1032C00080B582B000AF786039607B689B68002B66
:1032D00001D1012310E07B685A697B681B6879681B
:1032E000C96801FB03F31A447B68DB683868114640
:1032F0001A4602F09FFE002318460837BD4680BDDF
:1033000080B483B000AF78607B689B68002B0CBFF3
:1033100001230023DBB218460C37BD465DF8047B61
:10332000704700BF80B483B000AF78607B689B6853
:10333000002B12D07B681B6801337A681269B3FBDB
:10334000F2F102FB01F29A1A7B681A607B689B68B3
:103350005A1E7B689A60012300E0002318460C3750
:10336000BD465DF8047B704780B483B000AF7860E1
:103370007B6800221A607B681B695A1E7B685A6052
:103380007B6800229A600C37BD465DF8047B70476D
:1033900080B58EB000AF03460A46FB711346BB7181
:1033A0004D23FB600123BB62FB793B72BB797B72CF
:1033B00007F108033B6102237B610023FB610023CB
:1033C0003B6207F10C0305481946002201F0E2FCBC
:1033D000034618463837BD4680BD00BF00C00140D7
:1033E00080B58EB000AF0346FB714D23FB60012317
:1033F000BB62FB793B7207F108033B6101237B61F0
:1034000007F10803FB6101233B6207F10C03054848
:103410001946002201F0BEFC3B7A18463837BD46FB
:1034200080BD00BF00C0014080B500AF18208021E2
:10343000FFF7AEFF00200021FFF7AAFF08200321BD
:10344000FFF7A6FF0023184680BD00BF80B500AF80
:10345000FFF7EAFF18200321FFF79AFF102006214B
:10346000FFF796FF10200121FFF792FF0023184677
:1034700080BD00BF80B500AF4820FFF7B1FF034615
:10348000184680BD80B582B000AF0346FB7100BF17
:103490004020FFF7A5FF0346002BF9D0FB79002061
:1034A0001946FFF775FF0837BD4680BD80B58CB063
:1034B00000AFFFF7DFFF0346002B49D02820FFF7BE
:1034C0008FFF034687F82F3097F82F305BB2002B21
:1034D00002DA2348FFF7D8FD97F82F3003F00803EE
:1034E000002B02D01F48FFF7CFFD97F82F3003F0D5
:1034F0000403002B02D01C48FFF7C6FD97F82F30BD
:1035000003F00203002B02D01848FFF7BDFD97F827
:103510002F3003F00103002B1AD0002387F82C3042
:103520004D233B600123FB6107F12C037B600123EA
:10353000BB6007F12C033B6101237B613B460C48D8
:103540001946002201F026FC97F82C309BB201E0CE
:103550004FF6FF731BB218463037BD4680BD00BF23
:10356000248C0000448C0000608C00007C8C0000E7
:1035700000C0014080B500AF00F0CCF903469BB21B
:103580001A46920013445B009BB21A481946022265
:103590000123FFF785FB00F0D5F903469BB21A46DD
:1035A000920013445B009BB2134819460322012387
:1035B000FFF776FB00F0DEF903469BB21A46920055
:1035C00013445B009BB20D48194601220123FFF70B
:1035D00067FB00F0E7F903469BB21A4692001344DA
:1035E0005B009BB20648194604220123FFF758FBF3
:1035F00080BD00BF991B0000891D0000BD1D00009B
:10360000251E000080B582B000AF0023FB710220B0
:10361000FFF70AF80346002B12D100F087F90346A2
:103620009BB21A46920013445B009BB2364819467F
:1036300006220123FFF734FB00F078F90346FB7103
:103640000320FEF7F1FF0346002B19D100F086F9A5
:1036500003469BB21A46920013445B009BB22B4870
:10366000194607220123FFF71BFB00F08FF90346E1
:103670001A46FB79934203D200F088F90346FB71A6
:103680000120FEF7D1FF0346002B19D100F07EF98F
:1036900003469BB21A46920013445B009BB21C483F
:1036A000194605220123FFF7FBFA00F06FF90346E4
:1036B0001A46FB79934203D200F068F90346FB7186
:1036C0000320FEF7B1FF0346002B19D100F076F975
:1036D00003469BB21A46920013445B009BB20D480E
:1036E000194608220123FFF7DBFA00F067F90346C9
:1036F0001A46FB79934203D200F060F90346FB714E
:103700000837BD4680BD00BF911C0000A91D000008
:10371000F11D0000391E000080B582B000AF786056
:103720000B467B8013467B70FDF75AFD0346002B4A
:1037300007D07A787B88132011461A467B68FDF7FC
:1037400085F90837BD4680BD80B485B000AF78608C
:103750000B467B8013467B700D4BBB600023FB73D5
:103760000CE07A88FB7B1344BA681344FA7B7968CF
:103770000A4412781A70FB7B0133FB73FA7B7B7867
:103780009A42EED31437BD465DF8047B704700BF04
:10379000D401001080B500AFFEF7F2F90346002B0C
:1037A00006D00748642109220023FFF779FA05E0D3
:1037B0004FF400606821034AFEF70CF980BD00BF9A
:1037C00095370000D401001080B500AFFEF7D8F99E
:1037D0000346002B06D00748642109220023FFF787
:1037E0005FFA06E04FF480504FF4CC71024AFEF7C6
:1037F000F1F880BDC93700003C02001080B500AF71
:103800004FF400606821054AFEF756F94FF48050E6
:103810004FF4CC71024AFEF74FF980BDD40100107D
:103820003C02001080B400AF034B1B781846BD4625
:103830005DF8047B704700BFD401001080B400AF76
:10384000034B5B681846BD465DF8047B704700BFBC
:10385000D401001080B400AF034B1B7A1846BD465C
:103860005DF8047B704700BFD401001080B400AF46
:10387000034B5B7A1846BD465DF8047B704700BF7A
:10388000D401001080B400AF034BDB7A1846BD466C
:103890005DF8047B704700BFD401001080B400AF16
:1038A000034B1B7B1846BD465DF8047B704700BF89
:1038B000D401001080B400AF034B5B7B1846BD46BB
:1038C0005DF8047B704700BFD401001080B400AFE6
:1038D000034B9B7B1846BD465DF8047B704700BFD9
:1038E000D401001080B400AF034B1B7C1846BD46CA
:1038F0005DF8047B704700BFD401001080B400AFB6
:10390000034B5B7C1846BD465DF8047B704700BFE7
:10391000D401001080B400AF034B9B7C1846BD4619
:103920005DF8047B704700BFD401001080B400AF85
:10393000034BDB7C1846BD465DF8047B704700BF37
:10394000D401001080B400AF034B1B7D1846BD4668
:103950005DF8047B704700BFD401001080B400AF55
:10396000034B5B7D1846BD465DF8047B704700BF86
:10397000D401001080B400AF034B9B7D1846BD46B8
:103980005DF8047B704700BFD401001080B400AF25
:10399000034BDB7D1846BD465DF8047B704700BFD6
:1039A000D401001080B400AF034B1B7E1846BD4607
:1039B0005DF8047B704700BFD401001080B400AFF5
:1039C000034B5B7E1846BD465DF8047B704700BF25
:1039D000D401001080B400AF034B9B7E1846BD4657
:1039E0005DF8047B704700BFD401001080B400AFC5
:1039F000034BDB7E1846BD465DF8047B704700BF75
:103A0000D401001080B400AF034B1B7F1846BD46A5
:103A10005DF8047B704700BFD401001080B400AF94
:103A2000034B5B7F1846BD465DF8047B704700BFC3
:103A3000D401001080B400AF034B9B7F1846BD46F5
:103A40005DF8047B704700BFD401001080B400AF64
:103A5000034BDB7F1846BD465DF8047B704700BF13
:103A6000D401001080B400AF034B93F852301846D5
:103A7000BD465DF8047B7047D401001080B400AFF0
:103A8000034B93F853301846BD465DF8047B7047EE
:103A9000D401001080B400AF034B93F854301846A3
:103AA000BD465DF8047B7047D401001080B400AFC0
:103AB000034B93F855301846BD465DF8047B7047BC
:103AC000D401001080B400AF034B93F85730184670
:103AD000BD465DF8047B7047D401001080B400AF90
:103AE000034B93F85D301846BD465DF8047B704784
:103AF000D401001080B400AF064B93F85E20054B54
:103B000093F85D301344DBB21846BD465DF8047B84
:103B1000704700BFD401001080B400AF034B93F88E
:103B200061301846BD465DF8047B7047D401001033
:103B300080B400AF034B93F85A301846BD465DF889
:103B4000047B7047D401001080B400AF034B93F89E
:103B500063301846BD465DF8047B7047D401001001
:103B600080B400AF034B93F85F301846BD465DF854
:103B7000047B7047D401001080B400AF034B93F86E
:103B800060301846BD465DF8047B7047D4010010D4
:103B900080B400AF034B93F862301846BD465DF821
:103BA000047B7047D401001080B400AF114B93F830
:103BB000643043F00103DAB20E4B83F864200D4BFE
:103BC00093F8643043F00403DAB20A4B83F86420BC
:103BD000084B93F8643023F00803DAB2054B83F8FE
:103BE0006420044B93F864301846BD465DF8047BAE
:103BF000704700BFD401001080B400AF034B93F8AE
:103C000065301846BD465DF8047B7047D40100104E
:103C100090B58FB000AFFDF7E3FA0346002B62D0FA
:103C2000002387F83530002387F8373057E097F8BE
:103C3000372013465B0013441A0113442B4A1344E4
:103C4000184603F075FE034687F8353097F835308F
:103C5000002B3FD097F83530322B3BD801233B70F7
:103C600097F837307B70002387F8363019E097F8E3
:103C70003630991C97F8372097F836001B4C1346BE
:103C80005B0013441A011344034423441A7807F1D8
:103C900038030B4403F8382C97F83630013387F893
:103CA000363097F8362097F835309A42DFD397F8B8
:103CB0003530023307F138021344002203F8382C60
:103CC00097F835300233DAB23B46192011461A46CE
:103CD000FCF762FE97F83730013387F8373097F8F2
:103CE0003730072BA3D93C37BD4690BD3C020010AE
:103CF00080B582B000AF03463A60FB710B46BB71E2
:103D0000FA7913465B0013441A0113440B4A1A4410
:103D1000BB79104639681A4603F02FFEFA79B97953
:103D2000064813465B0013441A0113440B44034432
:103D300000221A700837BD4680BD00BF3C0200104B
:103D400080B483B000AF0346FB71FA7913465B0081
:103D500013441A011344044A134418460C37BD4651
:103D60005DF8047B704700BF3C02001080B582B054
:103D700000AF78600B467B8013467B70FDF730FA0E
:103D80000346002B07D07A787B88162011461A4606
:103D90007B68FCF75BFE0837BD4680BD80B582B00E
:103DA00000AF0346FB71054AFB79537204480921B1
:103DB0000122FFF7DBFF0837BD4680BD80420010BF
:103DC0008942001080B582B000AF0346FB71054AFE
:103DD000FB79937204480A210122FFF7C7FF0837D5
:103DE000BD4680BD804200108A42001080B400AF02
:103DF000034B5B7A1846BD465DF8047B704700BFF5
:103E00008042001080B500AF024800211022FFF769
:103E1000ADFF80BD8042001080B582B000AF7860F9
:103E2000054A7B681360044800210422FFF79EFFC7
:103E30000837BD4680BD00BF8042001080B582B00B
:103E400000AF0346FB71054AFB79137304480C214C
:103E50000122FFF78BFF0837BD4680BD804200106E
:103E60008C42001080B588B000AF0346FB710E4A4B
:103E7000FB799373FB7907F10C0210460B491A4644
:103E800002F0A0F900200021FEF700FE07F10C036C
:103E900000201946FEF736FE05480E210122FFF7E5
:103EA00065FF2037BD4680BD80420010988C000021
:103EB0008E42001080B400AF034B9B7B1846BD467A
:103EC0005DF8047B704700BF8042001080B584B06D
:103ED00000AF0346FB71FDF783F90346002B0AD0C0
:103EE00001233B73FB797B7307F10C03182002213C
:103EF0001A46FCF751FD1037BD4680BD80B483B033
:103F000000AF0346FB71084997F907305B09FA795E
:103F100002F01F02012000FA02F241F823200C37C0
:103F2000BD465DF8047B704700E100E080B500AF5E
:103F30004FF040231B6803F00103002B0AD04FF021
:103F4000402301221A601C4B1B6801331A4A13607C
:103F5000FEF7F6FF4FF040231B6803F00203002B2F
:103F600008D04FF0402302221A60144B1B68013323
:103F7000124A13604FF040231B6803F01003002B1C
:103F800008D04FF0402310221A600D4B1B680133FC
:103F90000B4A13604FF040231B6803F02003002BF3
:103FA00008D04FF0402320221A60064B1B680133D3
:103FB000044A136000BF80BD940100109C010010F2
:103FC000A4010010AC01001080B500AF1D4B1B68B0
:103FD00003F00103002B09D01A4B01221A601A4B7F
:103FE0001B680133184A1360FFF73AF8154B1B683A
:103FF00003F00203002B07D0124B02221A60134B6E
:104000001B680133114A13600E4B1B6803F0100349
:10401000002B07D00B4B10221A600D4B1B6801338D
:104020000B4A1360074B1B6803F02003002B07D0DB
:10403000044B20221A60074B1B680133054A1360AA
:1040400000BF80BD0080004098010010A00100105A
:10405000A8010010B001001080B483B000AF034687
:10406000FB71FB79002B04D14FF0402301225A60F1
:1040700013E0FB79012B03D10B4B01225A600CE0BA
:10408000FB79022B03D1094B01225A6005E0FB7931
:10409000032B02D1064B01225A6000BF0C37BD46EC
:1040A0005DF8047B704700BF0080004000000940BD
:1040B0000040094080B584B000AF03463960FB7111
:1040C000FB79002B6FD16E4B00221A606D4B0022E2
:1040D0001A606D4B00221A606C4B00221A606C4A09
:1040E0006B4BD3F8C43043F00203C2F8C430694AC2
:1040F000684BDB6823F07063D360664A654BDB680E
:1041000043F07063D3604FF040230F221A60604B7E
:10411000D3F8A8319B0803F00303BB60BB68022BF4
:104120000CD0032B0FD0012B04D05B4B1B689B08DA
:10413000FB600DE0584B1B68FB6009E0564B1B68A9
:104140005B08FB6004E0544B1B68DB08FB6000BFAE
:104150004FF04022FB685149A1FB03139B0CD36035
:104160004FF040234FF47A729A614FF040234FF49E
:104170007A72DA614FF040224FF04023DB6B23F478
:104180007F63D3634FF040224FF04023DB6B43F05B
:10419000F003D3634FF040231B225A610120FFF745
:1041A000ADFE012368E0FB79012B64D13C4B00227A
:1041B0001A603C4B00221A603B4B00221A603B4BBA
:1041C00000221A60324A324BD3F8C43043F0040361
:1041D000C2F8C4302F4A2F4BDB6823F44323D3604B
:1041E0002C4A2C4BDB6843F44323D360304B0F2223
:1041F0001A60274BD3F8A8311B0903F00303BB60F7
:10420000BB68022B0CD0032B0FD0012B04D0224B08
:104210001B689B08FB600DE01F4B1B68FB6009E0FF
:104220001D4B1B685B08FB6004E01B4B1B68DB0835
:10423000FB6000BF1E4AFB681849A1FB03139B0CDF
:10424000D3601B4B0A229A61194B0A22DA61184A81
:10425000174BDB6B23F47F63D363154A144BDB6B83
:1042600043F0F003D363124B1B225A610220FFF785
:1042700045FE012300E0002318461037BD4680BDEF
:10428000940100109C010010A4010010AC0100106A
:1042900000C00F4000C002403400001083DE1B430A
:1042A00098010010A0010010A8010010B00100103A
:1042B0000080004080B500AF0C48FEF7E5FE1320FB
:1042C00000F02AF8132000F027F8132000F024F85B
:1042D000002000F021F8022000F01EF8032000F07A
:1042E00053F803461A46024B1A7080BDAC8C00008E
:1042F000B701001080B400AF064B1B78DBB2012B76
:1043000001D1012300E000231846BD465DF8047B7F
:10431000704700BFB701001080B582B000AF034600
:10432000FB71FB791846FFF7ADF80837BD4680BD35
:1043300080B584B000AF03463960FB710023FB7386
:1043400009E0FB7B3A6813441B781846FFF79AF89C
:10435000FB7B0133FB73FA7BFB799A42F1D3103775
:10436000BD4680BD80B500AF1320FFF7D5FF1320F9
:10437000FFF7D2FF1320FFF7CFFF0020FFF7CCFF9E
:104380000120FFF7C9FF80BD90B583B000AF0346A1
:10439000FB71FB7954481946FEF776FEFB79022B38
:1043A00007D10020FFF7B8FF0220FFF7B5FF032376
:1043B00096E0FB79032B40F08F800120FFF7ACFFE4
:1043C0000420FFF7A9FF0320FFF7A6FFFFF7B0FBCC
:1043D00003461846FFF7A0FF0420FFF79DFFFFF7F5
:1043E00099FA03461846FFF797FF0020FFF794FF5E
:1043F0000520FFF791FFFFF771FB03461846FFF713
:104400008BFFFFF777FB03461C46FFF767FB03466E
:10441000E31ADBB21846FFF77FFF0020FFF77CFFAF
:104420000920FFF779FFFFF7BFFB03461846FFF7A8
:1044300073FF0E20FFF770FFFFF744FB034618469B
:10444000FFF76AFF0B20FFF767FF0020FFF764FF0D
:104450000D20FFF761FFFFF75FFB03461846FFF7EC
:104460005BFF1020FFF758FFFFF77AFB0346184663
:10447000FFF752FF1120FFF74FFFFFF77DFB0346C9
:104480001846FFF749FF1220FFF746FFFFF780FBB2
:1044900003461846FFF740FF1720FFF73DFFFFF7E1
:1044A00053FB03461846FFF737FF0720FFF734FF9B
:1044B0000220FFF731FFFFF79FFB03461846FFF787
:1044C0002BFFFFF799FB03461846FFF7CBFC074B82
:1044D00001221A70012303E00548FEF7D5FDFF23F2
:1044E00018460C37BD4690BDC08C0000B7010010C7
:1044F000DC8C000080B582B000AF0346FB71FB7915
:104500000A481946FEF7C0FDFB79022B03D1084883
:10451000FEF7BAFD05E0FB79032B02D10548FEF753
:10452000B3FDFF2318460837BD4680BDF88C000058
:10453000108D0000308D000080B584B000AF654B59
:104540001B78DBB2022B23D100F000F90346BB81BC
:10455000B7F90C30B3F1FF3F19D0B7F90C30552B38
:1045600007D10220FFF710FF03461A46594B1A7075
:104570000DE0B7F90C3058481946FEF785FD0220CA
:10458000FFF7B8FF03461A46524B1A709EE09DE0B3
:10459000504B1B78DBB2032B23D100F0D7F8034636
:1045A0007B81B7F90A30B3F1FF3F19D0B7F90A3070
:1045B0004A481946FEF768FDB7F90A30172B07D1AC
:1045C0000320FFF7E1FE03461A46424B1A7007E04C
:1045D0000320FFF78FFF03461A463E4B1A7075E023
:1045E00074E03C4B1B78DBB2012B6FD13C4840217F
:1045F00000F086F8786000F0A9F803467B807B68BD
:10460000002B16D00023FB7309E0FB7B344AD35CFC
:1046100034481946FEF738FDFB7B0133FB73FA7B08
:104620007B689A42F1D37B68DBB218462C49FFF7CE
:104630007FFE7B881BB2B3F1FF3F47D07B889BB2E4
:1046400003F0C003C02B2BD17B889BB203F0010386
:10465000002B02D02448FEF717FD7B889BB203F0A5
:104660000203002B02D02148FEF70EFD7B889BB28F
:1046700003F00403002B02D01D48FEF705FD7B88E4
:104680009BB203F00803002B02D01A48FEF7FCFC93
:104690007B881BB2C02B14D11748FEF7F5FC10E045
:1046A0007B889BB203F0C003802B0AD07B881BB2AF
:1046B00012481946FEF7E8FC7B88DBB21846FFF784
:1046C00005FCBB1C0120194600F02EF81037BD4632
:1046D00080BD00BFB7010010548D00007C8D00002C
:1046E000D04200108C8D0000A08D0000B48D000021
:1046F000CC8D0000E88D0000008E00001C8E0000B4
:1047000080B582B000AF78600B467B807B8805481F
:1047100079681A46002301F05BF90346184608370A
:10472000BD4680BD0080094080B582B000AF034621
:104730003960FB71FB79044839681A46012301F09E
:10474000D3F80837BD4680BD0080094080B582B0EF
:1047500000AFFEF7ABFE0346FB80B7F90630B3F1BE
:10476000FF3F01D0FB8801E04FF6FF731BB21846F4
:104770000837BD4680BD00BF90B583B000AF03468B
:10478000FB71FB7958481946FEF77EFCFB79012B3B
:1047900006D10120FFF7C0FD0420FFF7BDFDA0E01A
:1047A000FB79032B09D10320FFF7B6FDFFF7C0F912
:1047B00003461846FFF7B0FD93E0FB79042B0CD1BC
:1047C0000420FFF7A9FDFFF7A5F803461846FFF7F9
:1047D000A3FD0020FFF7A0FD83E0FB79052B18D196
:1047E0000520FFF799FDFFF779F903461846FFF713
:1047F00093FDFFF77FF903461C46FFF76FF9034669
:10480000E31ADBB21846FFF787FD0020FFF784FDAF
:1048100067E0FB79092B09D10920FFF77DFDFFF740
:10482000C3F903461846FFF777FD5AE0FB790E2BD4
:1048300009D10E20FFF770FDFFF744F90346184633
:10484000FFF76AFD4DE0FB790B2B06D10B20FFF73C
:1048500063FD0020FFF760FD43E0FB790D2B09D1DC
:104860000D20FFF759FDFFF757F903461846FFF7EC
:1048700053FD36E0FB79102B09D11020FFF74CFDDA
:10488000FFF76EF903461846FFF746FD29E0FB796E
:10489000112B09D11120FFF73FFDFFF76DF90346FA
:1048A0001846FFF739FD1CE0FB79122B09D11220C5
:1048B000FFF732FDFFF76CF903461846FFF72CFDB2
:1048C0000FE0FB79172B09D11720FFF725FDFFF724
:1048D0003BF903461846FFF71FFD02E00348FEF7C9
:1048E000D3FB0C37BD4690BD308E0000508E0000CB
:1048F00080B582B000AFFFF7FDFC0346002B1FD050
:10490000FFF7D8FA0346013BFB71FFF7E7F80346D0
:104910001A46FB79934210D3FB790B481946FEF7F0
:10492000B3FB0220FFF7F8FCFB791846FFF7F4FC15
:10493000FB791846FFF796FA02E00448FEF7A4FB5D
:104940000837BD4680BD00BF6C8E0000848E00001D
:1049500080B582B000AFFFF7CDFC0346002B1FD01F
:10496000FFF7A8FA03460133FB71FFF7C3F80346CC
:104970001A46FB79934210D8FB790B481946FEF78B
:1049800083FB0220FFF7C8FCFB791846FFF7C4FC45
:10499000FB791846FFF766FA02E00448FEF774FB5D
:1049A0000837BD4680BD00BF988E0000B08E000065
:1049B00080B500AFFFF79EFC0346002B02D00A2013
:1049C000FFF7AAFC80BD00BF80B582B000AF0346F0
:1049D0003960FB71FFF78EFC0346002B0CD0FB798E
:1049E000322B05D8FB7918463968FFF7A1FC03E0A4
:1049F00032203968FFF79CFC0837BD4680BD00BFF8
:104A000080B400AF084B1B78DBB20133DAB2064B3F
:104A10001A70064B1B889BB201339AB2034B1A8063
:104A2000BD465DF8047B7047B6010010B40100106C
:104A300080B483B000AF0346FB71084997F9073093
:104A40005B09FA7902F01F02012000FA02F241F834
:104A500023200C37BD465DF8047B704700E100E081
:104A600080B483B000AF0346FB71094997F9073062
:104A70005B09FA7902F01F02012000FA02F22033EA
:104A800041F823200C37BD465DF8047B704700BF1A
:104A900000E100E080B483B000AF78607B680C4A2E
:104AA000934201D100230DE07B680A4A934201D171
:104AB000012307E07B68084A934201D1022301E009
:104AC0004FF0FF3318460C37BD465DF8047B704746
:104AD00000C0014000C0054000000A4080B483B01F
:104AE00000AF78607B6820221A607B6808229A6198
:104AF00000BF7B681B6803F00803002BF9D07B68BC
:104B000020229A617B685B6803F0F80318460C3733
:104B1000BD465DF8047B704780B483B000AF786019
:104B20007B681B6803F02003002B02D07B682022E7
:104B30009A617B6810221A607B6808229A610C37A0
:104B4000BD465DF8047B704780B483B000AF7860E9
:104B50000B46FB707B681B6803F02003002B02D020
:104B60007B6820229A61FA787B689A607B680822C9
:104B70009A6100BF7B681B6803F00803002BF9D023
:104B80007B685B6803F0F80318460C37BD465DF898
:104B9000047B704780B485B000AFF860B9601346FD
:104BA000FB71FB79012B03D1FB6804221A6002E040
:104BB000FB6804229A61FB6808229A6100BFFB68C7
:104BC0001B6803F00803002BF9D0FB689B68DAB27E
:104BD000BB681A70FB685B6803F0F803184614376B
:104BE000BD465DF8047B704780B584B000AF786047
:104BF00039607B68184A934208D10E2001F0B2F95F
:104C000002463B68B2FBF3F3FB6018E07B68134A93
:104C1000934208D1262001F0A5F902463B68B2FB79
:104C2000F3F3FB600BE07B680D4A934207D134201D
:104C300001F098F902463B68B2FBF3F3FB60FB68B6
:104C40005A087B681A617B681B69FA68D21A7B680C
:104C50005A611037BD4680BD00C0014000C005400C
:104C600000000A4080B582B000AF786039607B6890
:104C7000194A934208D18020012101F0A5F90E20A4
:104C8000022101F003F91CE07B68144A934209D128
:104C90004FF40020012101F097F92620022101F0B4
:104CA000F5F80EE07B680E4A934209D14FF0806020
:104CB000012101F089F93420022101F0E7F800E038
:104CC00006E078683968FFF78FFF7B6864229A6195
:104CD0000837BD4680BD00BF00C0014000C0054090
:104CE00000000A4080B483B000AF78600B46FB70D0
:104CF000FB78012B03D17B6840221A6002E07B68BD
:104D000040229A610C37BD465DF8047B704700BFB6
:104D100080B582B000AF78600B46FB70FB78002B4B
:104D200017D07B68184A934203D10A20FFF780FE10
:104D300026E07B68154A934203D10B20FFF778FEEB
:104D40001EE07B68124A93421AD10C20FFF770FED6
:104D500017E07B680C4A934203D10A20FFF780FEDC
:104D60000EE07B68094A934203D10B20FFF778FEDF
:104D700006E07B68064A934202D10C20FFF770FEE2
:104D800000BF0837BD4680BD00C0014000C00540DF
:104D900000000A4080B588B000AFF860B9601346E3
:104DA000FB71BB685B68FB61BB681B69BB61BB686F
:104DB0000022DA60BB6800229A61BB6800225A6256
:104DC000FB79002B40F02981BB6800221A62BB6886
:104DD0005B68FB61BB681B69BB61BB680022DA6072
:104DE000BB6800229A6100237B61F868FFF776FEBA
:104DF00078617B69082B12D07B69102B0FD0BB68C0
:104E00001B6A5A1CBB681A62BB681A6ABB68DB69FA
:104E10009A4203D9BB687A695A62F9E0D7E7BB685E
:104E20009B68002B4DD0BB685B68002B49D0BB68EA
:104E30001B68DBB25B00DBB2F8681946FFF784FE43
:104E400078617B69182B11D0BB681B6A5A1CBB6840
:104E50001A62BB681A6ABB68DB699A4205D97B692A
:104E600043F40072BB685A62D2E0B0E723E0FB690A
:104E70001B78F8681946FFF767FE78617B69282B75
:104E800011D0BB681B6A5A1CBB681A62BB681A6ADD
:104E9000BB68DB699A4205D97B6943F40072BB6841
:104EA0005A62B5E093E7FB690133FB61BB68DB68DD
:104EB0005A1CBB68DA60BB68DA68BB689B689A42B8
:104EC000D5D3BB689B68002B25D0BB685B68002BE3
:104ED00021D0BB685B69002B1DD0BB681B69002B10
:104EE00019D0F868FFF7FAFD78617B69082B12D0BA
:104EF0007B69102B0FD0BB681B6A5A1CBB681A62F7
:104F0000BB681A6ABB68DB699A4203D9BB687A69D5
:104F10005A627DE05BE7BB685B69002B73D0BB68BE
:104F20001B69002B6FD0BB681B68DBB25B00DBB278
:104F300043F00103DBB2F8681946FFF705FE78611C
:104F40007B69402B11D0BB681B6A5A1CBB681A6274
:104F5000BB681A6ABB68DB699A4205D97B6943F46E
:104F60000072BB685A6253E031E746E0BB689A6959
:104F7000BB685B69013B9A421AD207F11303F868D8
:104F800019460122FFF706FE78617B69502B2AD073
:104F9000BB681B6A5A1CBB681A62BB681A6ABB688A
:104FA000DB699A4203D9BB687A695A6230E00EE73E
:104FB00007F11303F86819460022FFF7EBFD78614B
:104FC0007B69582B0FD0BB681B6A5A1CBB681A62DE
:104FD000BB681A6ABB68DB699A4203D9BB687A6905
:104FE0005A6215E0F3E6BB695A1CBA61FA7C1A7082
:104FF000BB689B695A1CBB689A61BB689A69BB68AD
:105000005B699A42B2D3F868FFF786FD012326E078
:10501000F868FFF781FD002321E0FB79012B1DD10A
:10502000F868FFF737FD0346DBB2FB74FB7C1946DB
:10503000BB680D4A42F83130FB7C0B4ADB0013445D
:1050400000225A60FB6808229A61FB6820221A60DD
:10505000F8680121FFF75CFE012300E000231846F9
:105060002037BD4680BD00BFB801001080B483B0BA
:1050700000AF134B4FF0FF32C3F88020104B0122DA
:10508000C3F884200E4B4FF0FF32C3F880210C4B45
:105090000122C3F884210023FB7108E0084AFB7950
:1050A0001344002283F80023FB790133FB71FB7961
:1050B0001F2BF3D90C37BD465DF8047B704700BF4A
:1050C00000E100E080B483B000AF194B4FF02062E4
:1050D0005A60174B00229A60154B164ADA60144B3F
:1050E00000221A61124B00225A610023FB7107E073
:1050F0000F4AFB79134400221A76FB790133FB71C6
:10510000FB791F2BF4D90A4B00225A62084B4FF04F
:10511000FF329A62064B4FF0FF32DA62044B4FF0D7
:10512000FF321A630C37BD465DF8047B704700BF41
:1051300000ED00E00000FA0580B487B000AF034640
:10514000FB710B46BB7113467B71BB797B61FB79AD
:105150005B003B61174BFB607B690F2B05D97B69BB
:10516000103B7B613B6901333B613B699B00FA6803
:1051700013443A699200F9680A4411687A69520046
:10518000104603228240D2430A401A603B699B00CA
:10519000FA6813443A699200F9680A4411687A7906
:1051A0007869400082400A431A601C37BD465DF8AA
:1051B000047B704700C0024080B487B000AF034654
:1051C000FB710B46BB7113467B71BB797B61FB792D
:1051D0005B003B61174BFB607B690F2B05D97B693B
:1051E000103B7B613B6901333B613B699B00FA6883
:1051F00013443A699200F9680A4411687A695200C6
:10520000104603228240D2430A401A603B699B0049
:10521000FA6813443A699200F9680A4411687A7985
:105220007869400082400A431A601C37BD465DF829
:10523000047B704740C0024080B485B000AF034695
:10524000FB710B46BB7113467B71154BFB607B7981
:10525000012B0FD1FB799B00FA681344FA79920075
:10526000F9680A441168BA79012000FA02F20A4387
:105270001A600FE0FB799B00FA681344FA799200F8
:10528000F9680A441168BA79012000FA02F2D2439F
:105290000A401A601437BD465DF8047B704700BFB2
:1052A00068C0024080B582B000AF78607B68197832
:1052B0007B685A787B689B78084611461A46FFF748
:1052C0003BFF7B6819787B685A787B68DB780846F7
:1052D00011461A46FFF770FF7B6819787B685A7889
:1052E0007B681B79084611461A46FFF7A5FF083769
:1052F000BD4680BD2DE9B04F96B000AF78613961F1
:10530000002387F857307B69A14A934204D10620D5
:1053100000F028FE386519E07B699E4A934204D16B
:10532000082000F01FFE386510E07B699A4A93421E
:1053300004D1302000F016FE386507E07B69974AFB
:10534000934203D1322000F00DFE38654FF0FF3359
:10535000BB6200237B6400233B644FF000024FF0EC
:105360000003C7E90C230123BB6468E00023FB644E
:105370005AE03B6D1A464FF000031D0745EA12152F
:105380001407BB6C1A464FF0000302FB05F004FB48
:1053900003F10144A4FB0223C7E902231944F96085
:1053A000B86CF96C0144386900FB01F10A464FF012
:1053B0000003D7E9020102F00FFE02460B46C7E9DF
:1053C00008233B6AFB62D7E908231B003B600023EC
:1053D0007B603B68FB63FB6AB3F1004F05D9FB6A56
:1053E0005B42FB62FB6B0133FB63FB6B002B03D067
:1053F000FB6BB3F5803F00D913E0FA6ABB6A9A42AF
:105400000FD2FB6ABB62FB6B1A464FF00003C7E981
:105410000C23FB6C7B64BB6C3B64BB6A002B00D130
:1054200006E0FB6C0133FB64FA6CBB6C9A42A0D3C0
:10543000BB6A002B00D105E0BB6C0133BB64BB6CC5
:105440000F2B93D9D7E90C23134301D1002399E003
:105450003B6D1B093A6C02FB03F318464FF0000149
:105460003A6C7B6C13441A464FF000033C6B03FB11
:1054700004F57C6B02FB04F42C443D6BA5FB02237A
:105480001C44234602F0A8FD02460B461346FB616E
:105490003A69FB699A4204D93A69FB69D31ABB623B
:1054A00003E0FA693B69D31ABB62BB6A642202FB60
:1054B00003F23B69B2FBF3F3BB62BB6A022B5FD81A
:1054C0007B69344A93422AD17B691B7BDBB263F050
:1054D0007F03DAB27B691A73D7E90C234FEA122AE9
:1054E0004AEA036A4FEA132B5FFA8AF27B691A7160
:1054F00097F830207B691A707B691B7BDBB203F065
:105500007F03DAB27B691A733B6C1B01DAB27B6CE6
:1055100003F00F031343DAB27B699A622DE07B69D3
:105520001B7BDBB263F07F03DAB27B691A73D7E9C6
:105530000C234FEA122848EA03684FEA13295FFA5E
:1055400088F27B691A7197F830207B691A707B6941
:105550001B7BDBB203F07F03DAB27B691A733B6C0F
:10556000DBB21B01DAB27B6CDBB203F00F03DBB200
:105570001343DAB27B6983F82820012387F8573078
:1055800097F8573018465837BD46BDE8B08F00BF72
:1055900000C00040000001400080094000C00940F8
:1055A00080B584B000AF786039607B68884A9342E8
:1055B00003D10820012100F007FD7B68854A934252
:1055C00003D11020012100F0FFFC7B68824A934246
:1055D00004D14FF08070012100F0F6FC7B687F4A17
:1055E000934204D14FF00070012100F0EDFC7B6884
:1055F000784A934242D17B6807221A727B68002264
:105600001A7203E07B681B78DBB2FB607B681B7D52
:10561000DBB203F00103002BF4D17B68802283F816
:10562000302000BF7B681B7DDBB203F02003002B22
:10563000F8D07B68002283F830207B6800225A6013
:105640007B6800221A737B6800221A627B68002242
:105650001A747B68002283F84C207B68002283F850
:1056600054207B68002283F850207B681B7EDBB2CD
:10567000FB607B681B7DDBB2FB602EE07B68072252
:105680001A727B6800221A7203E07B681B78DBB217
:10569000FB607B681B7DDBB203F00103002BF4D1C0
:1056A0007B68802283F8302000BF7B681B7DDBB2E3
:1056B00003F02003002BF8D07B68002283F8302011
:1056C0007B6800225A607B6800221A737B68002284
:1056D0001A627B681B7DDBB2FB607B683F4A9342AA
:1056E00003D17B68002283F824203B681B6878681C
:1056F0001946FFF7FFFD7B68364A934206D17B6867
:105700001B7BDBB203F0C003FB6005E07B681B7B07
:10571000DBB203F0C003FB603B685B79012B04D074
:10572000022B07D0002B0FD009E0FB6843F00103E8
:10573000FB600AE0FB6843F00203FB6005E0FB68E6
:1057400043F00303FB6000E000BF3B681B79002BC4
:1057500024D0FB6843F00803FB603B681B79013BE6
:10576000032B1AD801A252F823F000BF9B57000068
:105770007D5700008757000091570000FB6843F0F9
:105780001003FB600AE0FB6843F02003FB6005E0C8
:10579000FB6843F03003FB6000E000BF3B689B798F
:1057A000012B00D004E0FB6843F00403FB6000BF62
:1057B0007B68084A934204D1FB68DAB27B681A73AB
:1057C00003E0FB68DAB27B681A731037BD4680BD10
:1057D00000C00040000001400080094000C00940B6
:1057E00080B582B000AF78607868002100F0B6F92B
:1057F0007B68124A934203D10820002100F0E4FBA9
:105800007B680F4A934203D11020002100F0DCFB9B
:105810007B680C4A934204D14FF08070002100F065
:10582000D3FB7B68084A934204D14FF000700021FB
:1058300000F0CAFB0837BD4680BD00BF00C0004075
:10584000000001400080094000C0094080B483B0DE
:1058500000AF78607B684FF416521A607B680322B1
:105860005A717B6800221A717B6800229A710C378A
:10587000BD465DF8047B704780B483B000AF7860AC
:105880000B46FB707B680B4A934203D17B68FA7826
:105890001A700AE000BF7B681B7DDBB203F02003B7
:1058A000002BF8D07B68FA781A700C37BD465DF88B
:1058B000047B70470000014080B483B000AF786083
:1058C0007B68084A934203D17B681B78DBB202E015
:1058D0007B681B78DBB218460C37BD465DF8047B4D
:1058E000704700BF0000014080B58AB000AFF8608B
:1058F000B9607A60FB70BB687B617B687B62FB7818
:10590000012B37D100233B6230E04FF0FF33FB61C6
:1059100006E0FB69002B00D109E0FB69013BFB615C
:10592000FB681B7DDBB203F02003002BF1D0FB6989
:10593000002B01D100BF45E01023BB6110E07B6963
:105940005A1C7A611B78F8681946FFF795FFBB6906
:10595000013BBB617B6A013B7B623B6A01333B627B
:10596000BB69002B02D07B6A002BE8D17B6A002B3D
:10597000CBD127E000233B6221E0FB681B7DDBB23B
:1059800003F02003002B00D11CE01023BB6110E0CA
:105990007B695A1C7A611B78F8681946FFF76CFF1F
:1059A0007B6A013B7B62BB69013BBB613B6A0133A4
:1059B0003B62BB69002B02D07B6A002BE8D17B6A7B
:1059C000002BDAD13B6A18462837BD4680BD00BFA0
:1059D00090B589B000AFF860B9607A60FB70BB68C1
:1059E0003B617B68FB61FB78012B2BD10023BB6102
:1059F00024E04FF0FF337B6106E07B69002B00D190
:105A000009E07B69013B7B61FB681B7DDBB203F036
:105A10000103002BF1D07B69002B01D100BF2DE0E9
:105A20003C69631C3B61F868FFF746FF034623703F
:105A3000FB69013BFB61BB690133BB61FB69002B67
:105A4000D7D11BE00023BB6115E0FB681B7DDBB2F7
:105A500003F00103002B00D110E03C69631C3B61A3
:105A6000F868FFF729FF03462370BB690133BB6168
:105A7000FB69013BFB61FB69002BE6D1BB69184662
:105A80002437BD4690BD00BF80B485B000AF7860BC
:105A900039600023FB73FB7B43F00103FB733B681E
:105AA000DB78012B04D0022B07D0002B0FD009E0AC
:105AB000FB7B43F04003FB730AE0FB7B63F07F0357
:105AC000FB7305E0FB7B63F03F03FB7300E000BF6B
:105AD0003B685B78012B03D1FB7B43F00403FB7332
